:020000020000FC
:100000000F9307E0202E06E0302E05E0402E04E09E
:10001000502E0F912FE721BB32E037BB0AE010E0F2
:100020000F9302E008BB07E0020D022D46D002BB91
:1000300031D00F910F9304E008BB06E0030D032DB0
:100040003CD002BB27D00F910F9308E008BB05E01E
:10005000040D042D32D002BB1DD00F910F9300E18F
:1000600008BB04E0050D052D28D002BB13D00F916D
:100070004AE053945416A1F655244394441681F64D
:1000800044243394341661F633242394241641F621
:100090002224C6CF8F939F93802F912F05D0019755
:1000A000E9F79F918F9108958F939F9380ED97E04B
:1000B0000197F1F79F918F910895EF93FF93E0EDF2
:1000C000F0E0E00F00E0F01F0491FF91EF91089540
:1000D0003F065B4F666D7D07FF6F8F939F9380E0B8
:1000E00090E0021B130B019602171307D0F7002FA5
:1000F000112F282F392F9F918F9108956F937F9300
:100100008F939F9328EE33E0E8DF622F002F112FAB
:1001100024E630E0E2DF722F002F2AE030E0DDDF5E
:10012000822F902F9F918F917F916F9108952FEF44
:0C01300030E0D3DF122E021B002E0895D9
:00000001FF
