:020000020000FC
:100000000F9307E035D0202E06E032D0302E05E0E9
:100010002FD0402E04E02CD0502E0F912FE721BB83
:1000200032E037BB05E010E032E038BB22BA0DD039
:1000300034E038BB32BA09D038E038BB42BA05D018
:1000400030E138BB52BA01D0EFCF8F939F93802F0E
:10005000912F05D00197E9F79F918F9108958F9384
:100060009F9380ED97E00197F1F79F918F9108950D
:10007000EF93FF93E6E8F0E0E00F00E0F01F04915B
:10008000FF91EF9108953F065B4F666D7D07FF6F0F
:00000001FF
