:020000020000FC
:0200000028C016
:020008000FC027
:1000160000C08F938FB7039409F413948FBF8F9109
:1000260018950F931F932F933F934F934FB78001CC
:10003600002411241695079541D0180129014FBFB8
:100046004F913F912F911F910F911895F89400E2CF
:100056000BBF01E000BD78940CE00EBD02E11AE78B
:100066001BBD0ABD00E409BF2224332444245524C1
:100076002FE721BB2EE127BB78940F9302E008BB44
:10008600022D4BD002BB52D00F910F9304E008BB58
:10009600032D43D002BB4AD00F910F9308E008BB53
:1000A600042D3BD002BB42D00F910F9300E108BB59
:1000B600052D33D002BB3AD00F91DFCF6F937F93DC
:1000C6008F939F9328EE33E013D0622F24E630E01F
:1000D6000FD0722F2AE030E00BD0822F902F062F00
:1000E600172F282F392F9F918F917F916F91089508
:1000F6008F939F9380E090E00217130720F0021B76
:10010600130B0196F9CF88019C019F918F91089559
:100116003F065B4F666D7D07FF6FEF93FF93E6E14A
:10012600F1E0E00F0491FF91EF9108958F939F9373
:1001360085E090E005D08150E9F79F918F91089571
:100146008F939F9380ED97E00197F1F79F918F91A1
:0201560008950A
:00000001FF
