:020000040000FA
:1000000018F09FE518F09FE518F09FE518F09FE5C0
:1000100018F09FE50000A0E1F0FF1FE518F09FE554
:1000200058000000400000004400000048000000AC
:100030004C000000000000005000000054000000D0
:10004000FEFFFFEAFEFFFFEAFEFFFFEAFEFFFFEA18
:10005000FEFFFFEAFEFFFFEAA0009FE5AA10A0E373
:100060005520A0E32430A0E3043080E50130A0E374
:10007000003080E50C1080E50C2080E5083090E52C
:10008000013B13E2FCFFFF0A0330A0E3003080E5F0
:100090000C1080E50C2080E564009FE50410A0E3CF
:1000A000041080E50210A0E3001080E554009FE5F5
:1000B000DBF021E300D0A0E1000040E2D7F021E333
:1000C00000D0A0E1000040E2D1F021E300D0A0E1A7
:1000D000000040E2D2F021E300D0A0E1800040E245
:1000E000D3F021E300D0A0E1080040E210F021E3CA
:1000F00000D0A0E101AB4DE20C009FE510FF2FE125
:1001000080C01FE000C01FE0F004004010010000AC
:10011000000000EB300000EB2C008FE2000C90E8B8
:1001200000A08AE000B08BE001704AE20B005AE1C7
:100130000000001A280000EB0F00BAE818E04FE2B8
:10014000010013E303F0471013FF2FE14408000000
:1001500064080000102052E27800B0287800A1283E
:10016000FBFFFF8A822EB0E13000B0283000A128CA
:1001700000409045004081451EFF2FE10030B0E374
:100180000040B0E30050B0E30060B0E3102052E262
:100190007800A128FCFFFF8A822EB0E13000A12860
:1001A000003081451EFF2FE101C08FE21CFF2FE1CF
:1001B0001FB50098019900F01EFA059886460FBCFD
:1001C000009C02B07047000001C08FE21CFF2FE1CD
:1001D00030B47546AE4630BC704700003D0100EBC0
:1001E0000210A0E1EFFFFFEB1CC09FE50FC08CE009
:1001F00001001CE30DE08F120FE0A0011CFF2FE1B6
:1002000001C08FE21CFF2FE100F0B2FA7000000085
:100210007847C04603002DE9EAFFFFEB0300BDE885
:10022000730100EB0C009FE50C109FE504209FE597
:1002300008309FE51EFF2FE1680000406804004081
:1002400068000040D8309FE5900302E00010A0E372
:10025000000000EA011081E2020051E1FCFFFFBA58
:100260001EFF2FE108D04DE204008DE2840000EB78
:1002700004008DE2880000EB040050E30800001A3F
:100280000100A0E3B20100EB0050A0E10560A0E195
:100290000600A0E1240000EB0050A0E10540A0E131
:1002A000060000EA0100A0E3A90100EB0050A0E174
:1002B0001D0000EB0050A0E10540A0E10000A0E11E
:1002C0000410A0E15C009FE56B0000EB130000EA66
:1002D0007D0FA0E3DAFFFFEB04008DE26E0000EB80
:1002E000010050E30200000A020050E30800001A77
:1002F000030000EA0000A0E128009FE5570000EBA2
:10030000050000EA0000A0E118009FE54C0000EBAA
:10031000010000EA0000A0E10000A0E10000A0E16F
:10032000EAFFFFEA1027000000000040A8109FE548
:10033000181091E50F1881E39C209FE5181082E5C5
:100340000118A0E3141082E51EFF2FE10F28A0E39F
:1003500084309FE51C2083E5000051E30600000A7D
:10036000010051E30900000A020051E30C00000AF9
:10037000030051E31400001A0E0000EA0000A0E19F
:100380000128A0E350309FE5142083E5100000EA27
:100390000000A0E10228A0E33C309FE5142083E5A3
:1003A0000B0000EA0000A0E10127A0E328309FE550
:1003B000142083E5060000EA0000A0E10227A0E384
:1003C00014309FE5142083E5010000EA0000A0E15D
:1003D0000000A0E10000A0E11EFF2FE1008002E08C
:1003E00070402DE90040A0E10150A0E1000055E37C
:1003F0000300001A0000D4E5010040E20000C4E55B
:10040000040000EA010055E30200001A0000D4E5F0
:10041000010080E20000C4E50000D4E5C01FA0E1B7
:10042000211F80E04111A0E1011140E00010C4E56E
:100430000010D4E5040094E5C3FFFFEB7040BDE875
:100440001EFF2FE110402DE90040A0E10010A0E3C5
:100450000400A0E1E1FFFFEB1040BDE81EFF2FE12B
:1004600010402DE90040A0E10110A0E30400A0E14C
:10047000DAFFFFEB1040BDE81EFF2FE1041080E51E
:100480001EFF2FE17C109FE5081091E5F01081E33D
:1004900070209FE5081082E51EFF2FE10010A0E10B
:1004A00060009FE5000090E5100010E30100001AD5
:1004B0000100A0E31EFF2FE148009FE5000090E54A
:1004C000200010E30100001A0200A0E3F8FFFFEA99
:1004D00030009FE5000090E5400010E30100001AA5
:1004E0000300A0E3F2FFFFEA18009FE5000090E59B
:1004F000800010E30100001A0400A0E3ECFFFFEA13
:100500000000A0E3EAFFFFEA008002E070477047C6
:10051000704700007847C04600009FE51EFF2FE1AE
:100520003C00004070B5060000F040F8056830005F
:100530000B30C408E400B44203D870BC002008BCEF
:10054000184768682A0000281AD00168A14213D30E
:100550000B00210008318B4208D3436801194B601E
:1005600003681B1B0B605160046001E0416851602F
:1005700070BC001D08BC1847020040680028E4D188
:100580002100280000F01EF80028DAD170BC08BC59
:10059000184710B500F08FF810BC08BC18470000D1
:1005A00000009FE51EFF2FE1080000407847C0468D
:1005B00000009FE51EFF2FE11000004070477047CC
:1005C0007047704738B504000A0069460020C046ED
:1005D000C046002805D002000099200000F0ACF8C9
:1005E000012038BC08BC184710B5012000F0CEF837
:1005F00010BC08BC1847F8B5C046C04605000C0042
:1006000000201020C0460600A819A0420DD9694656
:1006100032000020C046C046070001D100F0B6F805
:100620000098A04200D00500C419FFF7BFFFF61DD7
:1006300007000560F008C0004619280000F00AF81D
:10064000B44204D03868A21B310000F075F8F8BC41
:1006500008BC18470021016041608060704710208D
:10066000704770B50400051FFFF7A0FF0068002C5D
:100670001AD0446801E020006468002C01D0AC422C
:10068000F9D301680A18AA4204D12A68891805001A
:10069000016000E0456028684119A14207D1616806
:1006A000696021684018286070BC08BC18476C60FD
:1006B00070BC08BC184710B500F073F80169002938
:1006C00004D00022026100F062F902E0806800F0CC
:1006D0005DF900F053F800000E50A0E1AFFFFFEB12
:1006E00005E0A0E10050B0E10D10A0E10A30A0E16A
:1006F0000700C0E300D0A0E160D08DE220402DE9EA
:10070000C7FEFFEB2040BDE80060A0E30070A0E35F
:100710000080A0E300B0A0E30710C1E305C0A0E1A2
:10072000C009ACE8C009ACE8C009ACE8C009ACE855
:1007300001D0A0E11EFF2FE110B50300406801E0E9
:1007400003004068002801D08842F9D31868C31814
:100750008B4206D0CB1CD808C000001D411A521A8B
:100760000100081D0A60FFF77CFF10BC08BC184799
:100770000400C046C0462000FFF74AFD002000F0FC
:1007800055F8FFF725FD012000F038F810B500F00E
:1007900055F800F043F810BC08BC184710B5FFF737
:1007A000EDFF70B500F032F804680500002C15D19B
:1007B0002020FFF7B7FE040014D00B4900202200D0
:1007C0002C6003C20949A16020730949206160615E
:1007D0000029A06101D000F05BF8E061200070BC4E
:1007E00008BC1847FFF7CAFF000000009D07000083
:1007F0000000000001C08FE21CFF2FE1014918201A
:10080000ABDFFEE7260002001EFF2FE17847C0465F
:1008100000009FE51EFF2FE14400004010B50028B6
:1008200001D0FFF7EBFF10BC08BC184710B500F073
:100830006FF8FFF7F3FF10BC08BC184710B501288C
:1008400007D0002104A000F046F810BC012008BC2D
:10085000184709A1F6E7000053494752544D454D4A
:100860003A204F7574206F662068656170206D6551
:100870006D6F7279000000003A2048656170206D4C
:10088000656D6F727920636F727275707465640044
:1008900010B58820FFF746FE002801D00021017026
:1008A00010BC08BC1847802904D8002802D0017861
:1008B000002901D0002070470121017008307047E5
:1008C000002803D002000832914201D00020704776
:1008D00000210170704770B50C0005000A2000E08F
:1008E0006D1C00F02FF8002D06D028780028F7D1D5
:1008F00002E0641C00F026F8002C02D020780028CA
:10090000F7D10A2000F01EF870BC08BC18470000A0
:1009100010B5002103A0FFF7DEFF10BC012008BCCA
:1009200018470000534947414252543A2041626EF1
:100930006F726D616C207465726D696E6174696F40
:100940006E00000008B5694608700320ABDF01B0F7
:1009500008BC184701C08FE21CFF2FE110B504004E
:1009600009D1012407E0FFF7D5FD0068002800D178
:10097000054800F00BF82000FFF7D4FD0028F2D066
:1009800010BC08BC1847000093050000004708474A
:10099000B009000000000040080000005401000001
:1009A000B809000008000040E80400007C010000D5
:0809B00000000000000000003F
:0400000500000110E6
:00000001FF
